:020000040800F2
:1000000000C00020D9440008894300088B43000841
:100010008D4300088F430008914300080000000052
:1000200000000000000000000000000093430008F2
:10003000954300080000000097430008994300081A
:1000400021450008214500082145000821450008F8
:1000500021450008214500082145000821450008E8
:1000600021450008214500082145000821450008D8
:10007000A1430008B14300082145000821450008BC
:1000800021450008214500082145000821450008B8
:1000900021450008214500082145000821450008A8
:1000A0002145000821450008214500082145000898
:1000B0002145000821450008214500082145000888
:1000C0002145000821450008214500082145000878
:1000D0002145000821450008214500087D10000841
:1000E0002145000821450008214500082145000858
:1000F0002145000821450008214500082145000848
:100100002145000821450008214500082145000837
:10011000D50F000821450008C1430008214500080B
:100120002145000821450008214500082145000817
:1001300000000000000000000000000000000000BF
:1001400000000000000000000000000000000000AF
:10015000000000000000000000000000000000009F
:10016000000000000000000000000000000000008F
:10017000000000000000000000000000000000007F
:10018000000000000000000000000000000000006F
:10019000000000000000000000000000000000005F
:1001A000000000000000000000000000000000004F
:1001B000000000000000000000000000000000003F
:1001C000000000000000000000000000000000002F
:1001D000000000000000000000000000000000001F
:0401E0005FF8E0F1F3
:1001E80010B5054C237833B9044B13B10448AFF369
:1001F80000800123237010BDAC080020000000001F
:10020800CC57000808B5034B1BB103490348AFF3AB
:10021800008008BD00000000B0080020CC5700088E
:1002280070B54FF0FF0C4CF4E06C1CEA11541DBF84
:100238001CEA135594EA0C0F95EA0C0F00F0DEF84F
:100248002C4481EA030621EA4C5123EA4C5350EA34
:10025800013518BF52EA033541F4801143F4801385
:1002680038D0A0FB02CE4FF00005E1FB02E506F016
:100278000042E0FB03E54FF00006E1FB03569CF06B
:10028800000F18BF4EF0010EA4F1FF04B6F5007F71
:1002980064F5407404D25FEA4E0E6D4146EB0606E3
:1002A80042EAC62141EA55514FEAC52040EA5E506C
:1002B8004FEACE2EB4F1FD0C88BFBCF5E06F1ED816
:1002C800BEF1004F08BF5FEA500E50F1000041EB4D
:1002D800045170BD06F0004646EA010140EA0200FA
:1002E80081EA0301B4EB5C04C2BFD4EB0C0541EA1C
:1002F800045170BD41F480114FF0000E013C00F331
:10030800AB8014F1360FDEBF002001F0004170BD54
:10031800C4F10004203C35DA0C341BDC04F114046D
:10032800C4F1200500FA05F320FA04F001FA05F2F9
:1003380040EA020001F0004221F0004110EBD370C6
:1003480021FA04F642EB06015EEA430E08BF20EAF2
:10035800D37070BDC4F10C04C4F1200500FA04F395
:1003680020FA05F001FA04F240EA020001F0004127
:1003780010EBD37041F100015EEA430E08BF20EA9A
:10038800D37070BDC4F1200500FA05F24EEA020EE2
:1003980020FA04F301FA05F243EA020321FA04F011
:1003A80001F0004121FA04F220EA020000EBD370C8
:1003B8005EEA430E08BF20EAD37070BD94F0000FC8
:1003C8000FD101F00046400041EB010111F4801FFC
:1003D80008BF013CF7D041EA060195F0000F18BFAD
:1003E800704703F00046520043EB030313F4801FE9
:1003F80008BF013DF7D043EA0603704794EA0C0FA3
:100408000CEA135518BF95EA0C0F0CD050EA4106B8
:1004180018BF52EA4306D1D181EA030101F0004135
:100428004FF0000070BD50EA410606BF104619465D
:1004380052EA430619D094EA0C0F02D150EA013669
:1004480013D195EA0C0F05D152EA03361CBF1046AA
:1004580019460AD181EA030101F0004141F0FE4149
:1004680041F470014FF0000070BD41F0FE4141F4CD
:10047800780170BD81F0004102E000BF83F00043C5
:1004880030B54FEA41044FEA430594EA050F08BF27
:1004980090EA020F1FBF54EA000C55EA020C7FEAEB
:1004A800645C7FEA655C00F0E2804FEA5454D4EB68
:1004B8005555B8BF6D420CDD2C4480EA020281EA32
:1004C800030382EA000083EA010180EA020281EA6A
:1004D8000303362D88BF30BD11F0004F4FEA0131BC
:1004E8004FF4801C4CEA113102D0404261EB4101CB
:1004F80013F0004F4FEA03334CEA133302D0524251
:1005080063EB430394EA050F00F0A780A4F101040C
:10051800D5F1200E0DDB02FA0EFC22FA05F2801846
:1005280041F1000103FA0EF2801843FA05F359412C
:100538000EE0A5F120050EF1200E012A03FA0EFCAB
:1005480028BF4CF0020C43FA05F3C01851EBE371D5
:1005580001F0004507D54FF0000EDCF1000C7EEBF2
:1005680000006EEB0101B1F5801F1BD3B1F5001F30
:100578000CD349085FEA30004FEA3C0C04F101044F
:100588004FEA445212F5800F80F09A80BCF1004F78
:1005980008BF5FEA500C50F1000041EB045141EAFA
:1005A800050130BD5FEA4C0C404141EB0101013CC3
:1005B80028BFB1F5801FE9D291F0000F04BF0146B2
:1005C8000020B1FA81F308BF2033A3F10B03B3F184
:1005D80020020CDA0C3208DD02F1140CC2F10C0214
:1005E80001FA0CF021FA02F10CE002F11402D8BF72
:1005F800C2F1200C01FA02F120FA0CFCDCBF41EA3E
:100608000C019040E41AA2BF01EB0451294330BD0C
:100618006FEA04041F3C1CDA0C340EDC04F11404E9
:10062800C4F1200220FA04F001FA02F340EA0300C0
:1006380021FA04F345EA030130BDC4F10C04C4F106
:10064800200220FA02F001FA04F340EA03002946E6
:1006580030BD21FA04F0294630BD94F0000F83F430
:10066800801306BF81F480110134013D4EE77FEA13
:10067800645C18BF7FEA655C29D094EA050F08BF5F
:1006880090EA020F05D054EA000C04BF1946104640
:1006980030BD91EA030F1EBF0021002030BD5FEA84
:1006A800545C05D14000494128BF41F0004130BDAC
:1006B80014F580043CBF01F5801130BD01F0004500
:1006C80045F0FE4141F470014FF0000030BD7FEA73
:1006D800645C1ABF194610467FEA655C1CBF0B466E
:1006E800024650EA013406BF52EA033591EA030F85
:1006F80041F4002130BD00BF90F0000F04BF00217D
:10070800704730B54FF4806404F132044FF00005AF
:100718004FF0000150E700BF90F0000F04BF002128
:10072800704730B54FF4806404F1320410F000458E
:1007380048BF40424FF000013EE700BF42004FEA89
:10074800E2014FEA31014FEA02701FBF12F07F4306
:1007580093F07F4F81F06051704732F07F4208BFBD
:10076800704793F07F4F04BF41F40021704730B5C4
:100778004FF4607401F0004521F000411CE700BF10
:1007880050EA010208BF704730B54FF000050AE093
:1007980050EA010208BF704730B511F0004502D594
:1007A800404261EB41014FF4806404F132045FEA96
:1007B800915C3FF4D8AE4FF003025FEADC0C18BF3F
:1007C80003325FEADC0C18BF033202EBDC02C2F131
:1007D800200300FA03FC20FA02F001FA03FE40EAC3
:1007E8000E0021FA02F11444BDE600BF4FF0FF3CB1
:1007F80006E000BF4FF0010C02E000BF4FF0010C13
:100808004DF804CD4FEA410C7FEA6C5C4FEA430C8B
:1008180018BF7FEA6C5C1BD001B050EA410C0CBFDA
:1008280052EA430C91EA030F02BF90EA020F00203C
:10083800704710F1000F91EA030F58BF994208BFA3
:1008480090422CBFD8176FEAE37040F00100704760
:100858004FEA410C7FEA6C5C02D150EA013C07D1B7
:100868004FEA430C7FEA6C5CD6D152EA033CD3D002
:100878005DF8040B704700BF8446104662468C46FC
:100888001946634600E000BF01B5FFF7B7FF00282F
:1008980048BF10F1000F01BD4DF808EDFFF7F4FF58
:1008A8000CBF012000205DF808FB00BF4DF808EDE3
:1008B800FFF7EAFF34BF012000205DF808FB00BF06
:1008C8004DF808EDFFF7E0FF94BF012000205DF828
:1008D80008FB00BF4DF808EDFFF7CEFF94BF0120DD
:1008E80000205DF808FB00BF4DF808EDFFF7C4FFD6
:1008F80034BF012000205DF808FB00BF4FEA410229
:1009080012F5001215D211D56FF47873B3EB625259
:1009180012D94FEAC12343F0004343EA505311F080
:10092800004F23FA02F018BF404270474FF0000012
:10093800704750EA013005D111F0004008BF6FF050
:10094800004070474FF00000704700BF80F0004043
:1009580002E000BF81F0004142001FBF5FEA41038F
:1009680092EA030F7FEA226C7FEA236C6AD04FEA8F
:100978001262D2EB1363C1BFD218414048404140D4
:10098800B8BF5B42192B88BF704710F0004F40F486
:10099800000020F07F4018BF404211F0004F41F4A2
:1009A800000121F07F4118BF494292EA030F3FD06E
:1009B800A2F1010241FA03FC10EB0C00C3F1200381
:1009C80001FA03F100F0004302D5494260EB400010
:1009D800B0F5000F13D3B0F1807F06D340084FEA7B
:1009E800310102F10102FE2A51D2B1F1004F40EB70
:1009F800C25008BF20F0010040EA030070474900D8
:100A080040EB0000013A28BFB0F5000FEDD2B0FA74
:100A180080FCACF1080CB2EB0C0200FA0CF0AABF97
:100A280000EBC25052421843BCBFD0401843704735
:100A380092F0000F81F4000106BF80F4000001323B
:100A4800013BB5E74FEA41037FEA226C18BF7FEA12
:100A5800236C21D092EA030F04D092F0000F08BF54
:100A68000846704790EA010F1CBF0020704712F03B
:100A78007F4F04D1400028BF40F00040704712F17A
:100A880000723CBF00F50000704700F0004343F0DF
:100A9800FE4040F4000070477FEA226216BF084615
:100AA8007FEA23630146420206BF5FEA412390EAD8
:100AB800010F40F4800070474FF0000304E000BFCE
:100AC80010F0004348BF40425FEA000C08BF70477F
:100AD80043F0964301464FF000001CE050EA010243
:100AE80008BF70474FF000030AE000BF50EA010258
:100AF80008BF704711F0004302D5404261EB410145
:100B08005FEA010C02BF84460146002043F0B64369
:100B180008BFA3F18053A3F50003BCFA8CF2083A8E
:100B2800A3EBC25310DB01FA02FC634400FA02FC97
:100B3800C2F12002BCF1004F20FA02F243EB02009E
:100B480008BF20F00100704702F1200201FA02FC00
:100B5800C2F1200250EA4C0021FA02F243EB0200F3
:100B680008BF20EADC7070474FF0FF0C1CEAD05237
:100B78001EBF1CEAD15392EA0C0F93EA0C0F6FD0F8
:100B88001A4480EA010C400218BF5FEA41211ED0D6
:100B98004FF0006343EA501043EA5111A0FB0131C2
:100BA8000CF00040B1F5000F3EBF490041EAD37197
:100BB8005B0040EA010062F17F02FD2A1DD8B3F113
:100BC800004F40EBC25008BF20F00100704790F082
:100BD800000F0CF0004C08BF49024CEA502040EAD4
:100BE80051207F3AC2BFD2F1FF0340EAC25070479A
:100BF80040F400004FF00003013A5DDC12F1190FD8
:100C0800DCBF00F000407047C2F10002410021FA49
:100C180002F1C2F1200200FA02FC5FEA310040F161
:100C2800000053EA4C0308BF20EADC70704792F0DA
:100C3800000F00F0004C02BF400010F4000F013A12
:100C4800F9D040EA0C0093F0000F01F0004C02BF0D
:100C5800490011F4000F013BF9D041EA0C018FE77C
:100C68000CEAD15392EA0C0F18BF93EA0C0F0AD082
:100C780030F0004C18BF31F0004CD8D180EA0100A8
:100C880000F00040704790F0000F17BF90F0004F41
:100C9800084691F0000F91F0004F14D092EA0C0F23
:100CA80001D142020FD193EA0C0F03D14B0218BFB6
:100CB800084608D180EA010000F0004040F0FE40FC
:100CC80040F40000704740F0FE4040F44000704798
:100CD8004FF0FF0C1CEAD0521EBF1CEAD15392EA17
:100CE8000C0F93EA0C0F69D0A2EB030280EA010C07
:100CF80049024FEA402037D04FF0805343EA1111A0
:100D080043EA10130CF000408B4238BF5B0042F1FD
:100D18007D024FF4000C8B4224BF5B1A40EA0C00A2
:100D2800B3EB510F24BFA3EB510340EA5C00B3EBD4
:100D3800910F24BFA3EB910340EA9C00B3EBD10FC2
:100D480024BFA3EBD10340EADC001B0118BF5FEA14
:100D58001C1CE0D1FD2A3FF650AF8B4240EBC2503D
:100D680008BF20F0010070470CF0004C4CEA5020FE
:100D78007F32C2BFD2F1FF0340EAC250704740F44D
:100D880000004FF00003013A37E792F0000F00F03F
:100D9800004C02BF400010F4000F013AF9D040EABD
:100DA8000C0093F0000F01F0004C02BF490011F451
:100DB800000F013BF9D041EA0C0195E70CEAD15349
:100DC80092EA0C0F08D142027FF47DAF93EA0C0F30
:100DD8007FF470AF084676E793EA0C0F04D14B0214
:100DE8003FF44CAF08466EE730F0004C18BF31F0C6
:100DF800004CCAD130F000427FF45CAF31F00043C0
:100E08007FF43CAF5FE700BF4FF0FF3C06E000BF58
:100E18004FF0010C02E000BF4FF0010C4DF804CD7B
:100E28004FEA40024FEA41037FEA226C18BF7FEA8B
:100E3800236C11D001B052EA530C18BF90EA010F8D
:100E480058BFB2EB030088BFC81738BF6FEAE1701C
:100E580018BF40F0010070477FEA226C02D15FEAB8
:100E6800402C05D17FEA236CE4D15FEA412CE1D024
:100E78005DF8040B704700BF844608466146FFE7EB
:100E88000FB5FFF7C9FF002848BF10F1000F0FBDCD
:100E98004DF808EDFFF7F4FF0CBF012000205DF8C6
:100EA80008FB00BF4DF808EDFFF7EAFF34BF01204B
:100EB80000205DF808FB00BF4DF808EDFFF7E0FFE4
:100EC80094BF012000205DF808FB00BF4DF808ED35
:100ED800FFF7D2FF94BF012000205DF808FB00BF98
:100EE8004DF808EDFFF7C8FF34BF012000205DF87A
:100EF80008FB00BF4FEA4002B2F1FE4F0FD34FF09C
:100F08009E03B3EB12620DD94FEA002343F000436E
:100F180010F0004F23FA02F018BF404270474FF01C
:100F28000000704712F1610F01D1420205D110F0A3
:100F3800004008BF6FF0004070474FF00000704756
:100F480084460022134605E01CF80300024492B2CE
:100F58000133DBB28B42F7D3D0B270472DE9F843A7
:100F6800064690464F790B7947EA0317CB781B0260
:100F78001BB21F43BFB2078000240472002514E08F
:100F880047FA04F303F00100337A0344337258F844
:100F98002490FFF795FD4946FFF7E6FD01462846F0
:100FA800FFF7DAFC05460134E4B2092CE8D9307AB7
:100FB80040B1FFF785FD01462846FFF789FE7060BE
:100FC800BDE8F88300237360FAE70000234B1B6831
:100FD80013F0200F41D0214B5B68DBB2204A127816
:100FE800022A07D0FF2B25D0012A29D01C4B00222A
:100FF8001A7070471B4A12781B498B54052A28D946
:1010080010B50C4606212046FFF79AFFA3799842AF
:1010180007D0134B00221A70124A13780133137049
:1010280010BD2378012BF4D1104A21461048FFF750
:1010380095FFEEE7002AD7D1094B01221A707047B5
:10104800FF2BD3D1064B02221A70064B00221A70CE
:101058007047044A1378013313707047004C0040FE
:10106800DF080020DE080020D4080020000000204F
:10107800C808002030B583B0134B1B681A6812F0FB
:10108800100F0AD1104CC7221049204602F0AEFAC0
:10109800204602F0DDFB03B030BD002401941A683D
:1010A80001925B680193019B074802F0F3FA084B31
:1010B8001B685A68C2F1C702064D2A6021460348D8
:1010C80003F000FB2C60DDE7BC0C0020E0080020EA
:1010D800B0090020A809002010B5114C00212046B5
:1010E80001F0CEFF0421204601F0CAFF0821204666
:1010F80001F0C6FF0C21204601F0C2FF094C002177
:10110800204601F0BDFF0421204601F0B9FF082167
:10111800204601F0B5FF0C21204601F0B1FF10BDBB
:101128008C0A0020F40B00200020704708B501202D
:10113800FFF7FAFF084B18610220FFF7F5FF074B8E
:1011480018610320FFF7F0FF054B18610420FFF733
:10115800EBFF044B186108BD380000205000002048
:10116800300D0020480D002000291ADD0138032821
:1011780032D8DFE800F002070C11184B00225A633E
:1011880099637047154BD96300221A647047144B52
:10119800596300229A637047114B0022DA6319647D
:1011A800704749420138032816D8DFE800F00207E3
:1011B8000C110A4B596300229A637047074B0022AF
:1011C800DA6319647047064B00225A6399637047C3
:1011D800034BD96300221A64704700BF002C0140FA
:1011E800003401402DE9F0411A4CDFF86C802146AB
:1011F800404603F0BBF9194F2146384603F0B6F9CB
:10120800174E2146304603F0B1F9164D21462846BF
:1012180003F0ACF9D8F80000FFF76CFE0146012096
:10122800FFF7A2FF3868FFF765FE01460220FFF7C7
:101238009BFF3068FFF75EFE01460320FFF794FF2F
:101248002868FFF757FE01460420FFF78DFFBDE829
:10125800F08100BF600D0020380000205000002001
:10126800300D0020480D002038B504460D460022F8
:101278000023FFF71BFB70BB2BA3D3E900232046F9
:101288002946FEF7CDFF02460B4629A1D1E9000108
:10129800FFF7F4F822462B46FEF7C2FF04460D4638
:1012A8000022002320462946FFF700FB30BB00221E
:1012B800254B20462946FFF7E1F81FA3D3E9002371
:1012C800FEF7AEFF0022204BFFF7DAF822462B4646
:1012D800FEF7A6FF38BD14A3D3E90023204629460C
:1012E800FEF79EFF12A3D3E90023FFF7C9F82246B1
:1012F8002B46FEF795FF04460D46D1E70022124B18
:1013080020462946FFF7BCF80DA3D3E90023FEF7D2
:1013180087FF00220C4BFFF7B3F822462B46FEF757
:101328007FFFD7E7AFF30080000000602FF0D93FC0
:1013380000000060305FF43F000000C0CCCCCC3F20
:10134800000000C0CCCCCCBF0000F03F0000000083
:1013580070B504460D4608E01BA3D3E900232046D8
:101368002946FFF78BF804460D4617A3D3E9002357
:1013780020462946FFF7B8FA0028EDD114A3D3E98F
:10138800002320462946FFF7A5FAC0B110A3D3E9E8
:10139800002320462946FFF771F804460D464FF012
:1013A800FF3620462946FFF75FFF04460D463046C4
:1013B800FFF7B2F922462B46FEF732FF70BD012631
:1013C800EFE700BFAFF30080F1D4C853FB21194009
:1013D800F1D4C853FB21094070B51FA3D3E90023FA
:1013E800FFF74EF804460D4608E01DA3D3E9002395
:1013F80020462946FFF742F804460D4618A3D3E9CC
:10140800002320462946FFF76FFA0028EDD116A3DE
:10141800D3E9002320462946FFF75CFAC0B112A39E
:10142800D3E9002320462946FFF728F804460D464D
:101438004FF0FF3620462946FFF78AFF04460D463F
:101448003046FFF769F922462B46FEF7E9FE70BDE4
:101458000126EFE7AFF30080F1D4C853FB21F93F31
:10146800F1D4C853FB211940F1D4C853FB210940DA
:101478002DE9F04F89B0022800F0C180032800F060
:10148800CE80012800F0AB802046FFF757F90646CA
:101498000F46FFF7A1FF80468946654C2068FFF795
:1014A8003BF982468B4602460B4640464946FEF7C4
:1014B800B7FE8046894630463946FFF749FF06465B
:1014C8000F466068FFF728F9CDE9000102460B4690
:1014D80030463946FEF7A4FE02460B4640464946CA
:1014E800FEF7CEFF06460F46A068FFF715F98046BF
:1014F800894602460B4630463946FEF7BFFFFFF7DE
:10150800FDF94C4B58612846FFF718F906460F4677
:10151800FFF762FF0590024606910B465046594672
:10152800FEF77EFE04460D4630463946FFF710FFAB
:1015380002460B46DDE90001FEF772FE02460B4645
:10154800CDE9022320462946FEF798FF42464B463E
:10155800FEF794FFFFF7D2F9374B58610798FFF76A
:10156800EDF806460F46FFF737FF024601F1004344
:1015780050465946FEF754FE04460D463046394655
:10158800FFF7E6FE02460B46DDE90001FEF748FEDE
:1015980002460B4620462946FEF770FF42464B4658
:1015A800FEF76CFFFFF7AAF9244B5861059A0699D4
:1015B80001F1004350465946FEF732FE02460B46FB
:1015C800DDE90201FEF75CFF42464B46FEF756FF97
:1015D800FFF794F91A4B586109B0BDE8F08F194923
:1015E800194B1868FFF7C0FA04460146FFF7B2F92D
:1015F8004FF07C51FFF7B8FA0790254644E71149A8
:10160800114B1868FFF7B0FA04460146FFF7A2F934
:101618004FF07C51FFF7A8FA0790254634E70B49AD
:10162800094B1868FFF7A0FA0446079005462BE710
:10163800080D00203800002050000020300D002048
:10164800480D0020000070422800002000003442AD
:1016580008B5044B186059609A600320FFF708FF2B
:1016680008BD00BF080D002010B504460E4B1878C1
:101678004FF47A73B3FBF0F30C4A1068B0FBF3F045
:1016880000F094F868B90F2C01D901200AE0002273
:1016980021464FF0FF3000F043F8054B1C60002056
:1016A80000E0012010BD00BF2C0000203400002005
:1016B8003000002008B5074A136843F01003136090
:1016C800032000F01BF80020FFF7CEFF02F020FCFB
:1016D800002008BD00200240034A1168034B1B7814
:1016E8000B441360704700BFAC0900202C00002099
:1016F800014B1868704700BFAC090020074AD3683F
:1017080023F4E0631B041B0C000200F4E0600343B5
:1017180043F0BF6343F40033D360704700ED00E04B
:1017280000B5194BDB68C3F30223C3F1070CBCF106
:10173800040F28BF4FF0040C03F1040EBEF1060F8E
:1017480018D9033B4FF0FF3E0EFA0CFC21EA0C01BE
:1017580099400EFA03F322EA0303194300280BDB2E
:101768000901C9B200F1604000F5614080F800133A
:101778005DF804FB0023E5E700F00F000901C9B29A
:10178800024B1954F4E700BF00ED00E014ED00E04F
:10179800002807DB00F01F02400901239340024A9A
:1017A80042F82030704700BF00E100E00138B0F196
:1017B800807F0BD24FF0E0235861054AF02182F870
:1017C80023100020986107221A6170470120704792
:1017D80000ED00E030B40124056CAC40C56B6C60D2
:1017E800046863604368102B05D003689960036838
:1017F800DA6030BC704703689A600368D960F8E71C
:1018080000283AD010B4024600681D4B984229D8E7
:101818001C4B03441C49A1FB03131B099B001364C5
:101828001A4BD363022382F82130016821F47F51D7
:1018380021F03001536894682343D4682343146922
:1018480023435469234394692343D46923430B43B3
:10185800036000209063012382F8213082F8200081
:1018680010BC70470A4B03440749A1FB03131B092B
:101878009B001364074BD363D4E70120704700BF74
:1018880007040240F8FFFDBFCDCCCCCC00000240DD
:10189800F8FBFDBF0004024038B5044690F820006C
:1018A800012831D0012084F8200094F82100012873
:1018B80004D0002384F82030022038BD022084F8A8
:1018C80021000020A0632568286820F00100286016
:1018D8002046FFF77FFFE36A5BB12268136843F095
:1018E8000E0313602268136843F00103136000209D
:1018F800E3E72268136823F004031360226813687F
:1019080043F00A031360EDE70220D6E790F8213090
:10191800022B06D004238363002380F820300120A3
:1019280070470268136823F00E0313600268136897
:1019380023F001031360036CC16B012202FA03F365
:101948004B6080F82120002380F82030184670472B
:1019580008B590F82130022B03D0042383630120BB
:1019680008BD0268136823F00E0313600268136849
:1019780023F00103136003684B4A93424ED9783A27
:10198800934224D01432934230D0143293422FD051
:10199800143293422FD0143293422FD014329342F0
:1019A8002FD0143293422FD002F5627293422ED078
:1019B800143293422DD0143293422CD014329342D5
:1019C80002D04FF4803203E04FF4805200E001224D
:1019D800364B5A60012380F82130002380F82030EC
:1019E800436B002B5ED098470020B9E71022EFE741
:1019F8004FF48072ECE74FF48052E9E74FF48032FD
:101A0800E6E74FF48012E3E74FF08072E0E7012247
:101A1800DEE71022DCE74FF48072D9E7244A9342CC
:101A280024D01432934225D01432934224D0143255
:101A3800934224D01432934224D01432934224D0B7
:101A48001432934224D002F56272934223D01432A6
:101A5800934222D01432934221D01432934202D0BE
:101A68004FF4803203E04FF4805200E00122114B22
:101A78005A60AFE71022FAE74FF48072F7E74FF4A5
:101A88008052F4E74FF48032F1E74FF48012EEE72A
:101A98004FF08072EBE70122E9E71022E7E74FF405
:101AA8008072E4E700205BE7800002400004024007
:101AB800080002400000024038B5C36B1A68046889
:101AC8002568016C04238B40134200F09B8015F0BD
:101AD800040F00F09780236813F0200F03D12368C8
:101AE80023F00403236003689A4A934246D9783A5C
:101AF800934224D01432934228D01432934227D0F0
:101B08001432934227D01432934227D0143293428E
:101B180027D01432934227D002F56272934226D01E
:101B28001432934225D01432934224D01432934273
:101B380002D04FF4802203E04FF4804200E00422F8
:101B4800854B5A60C36A03B1984738BD4022F7E70E
:101B58004FF48062F4E74FF48042F1E74FF48022BB
:101B6800EEE74FF48002EBE74FF08062E8E70422EB
:101B7800E6E74022E4E74FF48062E1E7774A9342E0
:101B880024D01432934225D01432934224D01432F4
:101B9800934224D01432934224D01432934224D056
:101BA8001432934224D002F56272934223D0143245
:101BB800934222D01432934221D01432934202D05D
:101BC8004FF4802203E04FF4804200E00422644B8B
:101BD8005A60B7E74022FAE74FF48062F7E74FF41C
:101BE8008042F4E74FF48022F1E74FF48002EEE7F9
:101BF8004FF08062EBE70422E9E74022E7E74FF481
:101C08008062E4E702238B40134200F0AB8015F0BA
:101C1800020F00F0A780236813F0200F06D1236875
:101C280023F00A032360012380F821300368494A1E
:101C380093424BD9783A934224D0143293422DD010
:101C4800143293422CD0143293422CD01432934243
:101C58002CD0143293422CD0143293422CD002F55B
:101C6800627293422BD0143293422AD01432934298
:101C780029D01432934202D04FF4003203E04FF4DB
:101C8800005200E00222344B5A60002380F82030D2
:101C9800836A002B3FF459AF984756E72022F2E7B2
:101CA8004FF40072EFE74FF40052ECE74FF40032C4
:101CB800E9E74FF40012E6E74FF00072E3E702228B
:101CC800E1E72022DFE74FF40072DCE7234A934282
:101CD80024D01432934225D01432934224D01432A3
:101CE800934224D01432934224D01432934224D005
:101CF8001432934224D002F56272934223D01432F4
:101D0800934222D01432934221D01432934202D00B
:101D18004FF4003203E04FF4005200E00222104B6F
:101D28005A60B2E72022FAE74FF40072F7E74FF45F
:101D38000052F4E74FF40032F1E74FF40012EEE7F7
:101D48004FF00072EBE70222E9E72022E7E74FF4C1
:101D58000072E4E7800002400004024008000240EC
:101D680000000240082303FA01F111423FF4EDAEEE
:101D780015F0080F3FF4E9AE236823F00E03236043
:101D8800026CC16B012303FA02F24A60836380F894
:101D98002130002380F82030036B002B3FF4D5AEB0
:101DA8009847D2E670B582B00024A446B0E0874DCB
:101DB800AA4210D007D9864DAA420CD005F5803525
:101DC800AA4208D013E0A5F58015AA4203D005F56C
:101DD8007025AA4207D18A68002A62D0012A5BD0FE
:101DE8004361082403E0A5F58015AA42F3D0BEF1AB
:101DF800FF0F58D80646BEF1FF0F56D84FEA8C029F
:101E080033680F25954023EA050304FA02F21343C9
:101E180033604B6813F0805F78D06E4B9A6942F05C
:101E280001029A619B6903F001030193019B4FEA48
:101E38009C02951C684B53F825600CF003039D0029
:101E48000F23AB4026EA0306644B984233D003F5D0
:101E58008063984200F0988003F58063984200F010
:101E6800958003F58063984200F0928003F58063C3
:101E7800984200F08F8003F58063984219D00623BA
:101E88001AE0CC68B3E7CC680434B0E7CC6808340F
:101E9800ADE7CC680C34AAE703610824A7E700245F
:101EA800A5E70424A3E7061DA5E7ACF10802920004
:101EB800A6E7052300E00023AB4033430232464D3A
:101EC80045F822304B6813F4803F65D0444A1368C4
:101ED80043EA0E0313604B6813F4003F62D0404A94
:101EE800536843EA0E0353604B6813F4801F5FD0B6
:101EF8003B4A936843EA0E0393604B6813F4001F50
:101F08005CD0374AD36843EA0E03D3600CF1010C66
:101F18000A6832FA0CF357D0012303FA0CF302EAE9
:101F2800030E33EA0202F1D14A68122A3FF63FAFA4
:101F3800122A3FF65CAF01A555F822F0DF1D000814
:101F48008B1E0008951E0008A71E0008F71D000834
:101F5800F71D0008F71D0008F71D0008F71D000809
:101F6800F71D0008F71D0008F71D0008F71D0008F9
:101F7800F71D0008F71D0008F71D0008F71D0008E9
:101F88008F1E00089B1E0008012395E7022393E794
:101F9800032391E704238FE7114A136823EA0E030A
:101FA800136098E70E4A536823EA0E0353609BE7D1
:101FB8000B4A936823EA0E0393609EE7084AD368A6
:101FC80023EA0E03D360A1E702B070BD000022101F
:101FD80000003110001002400000014000080140DC
:101FE80000040140002800F0CC8070B5044690F849
:101FF8003D30002B77D0242384F83D3022681368C5
:1020080023F0010313602268136843F4004313604C
:102018002268136823F40043136000F0D1FB626860
:102028005A4B9A4264D85A4B98428CBF00230123DA
:10203800002B40F0A8805749A1FB00318B0C256884
:102048006A6822F03F0242EA91426A6021680A6A9D
:1020580022F03F0266684D4DAE424FD8013313431C
:102068000B622168CA6922F44F4222F0FF026668B7
:10207800464B9E424CD8431E7600B3FBF6F3013321
:1020880040F6FC70034278D0C3F30B031343CB61D3
:1020980021680B6823F0C003E269206A02431343F6
:1020A8000B6021688B6823F4034323F0FF03226944
:1020B800E068024313438B602168CB6823F0FF0379
:1020C8006269A06902431343CB602268136843F036
:1020D8000103136000202064202384F83D3020632E
:1020E80084F83E0070BD80F83C3001F033FF82E791
:1020F800294B98428CBF0023012399E74FF496752A
:1021080005FB03F3254DA5FB03539B090133A6E704
:10211800A368BBB9451E06EB460CB5FBFCF50135BB
:10212800C5F30B05B5FA85F56D0945BBC3B901388B
:1021380006EB4603B0FBF3F30133C3F30B0343F49D
:102148000043A3E7451E06EB860C0CEB8C0CB5FB95
:10215800FCF50135C5F30B05B5FA85F56D09E4E71E
:10216800013806EB860303EB8303B0FBF3F301337B
:10217800C3F30B0343F4404388E7042386E70123B2
:1021880084E7012070470120ACE700BFA08601006A
:102198007F841E0083DE1B43FF083D00D34D621081
:1021A80082B0084B1B68084AA2FB03235B0A00FBAA
:1021B80003F3019300BF019B5A1E0192002BF9D132
:1021C80002B0704734000020D34D6210002800F0A0
:1021D800F18170B582B00446036813F0010F2CD06A
:1021E800994B5B6803F00C03042B1DD0964B5B687E
:1021F80003F00C03082B12D06368B3F5803F41D07D
:10220800002B55D103F1804303F504331A6822F4F7
:1022180080321A601A6822F480221A6037E08A4BEA
:102228005B6813F4803FE7D0874B1B6813F4003FCB
:1022380003D06368002B00F0BF81236813F0020FFE
:1022480075D0814B5B6813F00C0F5FD07E4B5B68D9
:1022580003F00C03082B54D02369002B00F08A806C
:102268007A4B01221A60FFF743FA0546764B1B6842
:1022780013F0020F75D1FFF73BFA401B0228F5D97E
:1022880003209EE1704A136843F480331360636847
:1022980043B3FFF72DFA05466B4B1B6813F4003F59
:1022A800CBD1FFF725FA401B6428F5D9032088E134
:1022B800B3F5A02F09D0644B1A6822F480321A6053
:1022C8001A6822F480221A60E1E703F18043A3F53B
:1022D8003C331A6842F480221A601A6842F4803249
:1022E8001A60D4E7FFF704FA0546574B1B6813F446
:1022F800003FA2D0FFF7FCF9401B6428F5D9032062
:102308005FE1514B5B6813F4803FA5D14E4B1B68CE
:1023180013F0020F03D02369012B40F04F814A4A82
:10232800136823F0F803616943EAC1031360236863
:1023380013F0080F33D0A369002B5CD0434B012264
:10234800C3F88024FFF7D4F905463F4B5B6A13F0C6
:10235800020F21D1FFF7CCF9401B0228F5D9032041
:102368002FE1394A136823F0F803616943EAC1038E
:102378001360DCE7354B00221A60FFF7B9F9054610
:10238800314B1B6813F0020FD1D0FFF7B1F9401B96
:102398000228F5D9032014E10120FFF701FF236883
:1023A80013F0040F00F09680274BDB6913F0805F71
:1023B80034D1254BDA6942F08052DA61DB6903F0E7
:1023C80080530193019B0125214B1B6813F4807FE7
:1023D80026D0E368012B3DD0002B53D103F1804375
:1023E80003F504331A6A22F001021A621A6A22F00B
:1023F80004021A6233E0154B0022C3F88024FFF769
:1024080077F90546104B5B6A13F0020FC7D0FFF748
:102418006FF9401B0228F5D90320D2E00025D3E745
:102428000B4A136843F480731360FFF761F906469B
:10243800074B1B6813F4807FCBD1FFF759F9801B3A
:102448006428F5D90320BCE0001002400000424295
:10245800007000405F4A136A43F001031362E368A7
:1024680033B3FFF745F906465A4B1B6A13F0020FC0
:102478002FD1FFF73DF9801B41F288339842F3D9F9
:1024880003209EE0052B09D0524B1A6A22F0010264
:102498001A621A6A22F004021A62E0E74D4B1A6ABD
:1024A80042F004021A621A6A42F001021A62D6E77E
:1024B800FFF71EF90646474B1B6A13F0020F08D0B8
:1024C800FFF716F9801B41F288339842F3D90320AD
:1024D80077E0E5B9E369002B72D03E4A526802F012
:1024E8000C02082A56D0022B17D03B4B00221A6642
:1024F800FFF7FEF80446374B1B6813F0007F47D000
:10250800FFF7F6F8001B0228F5D9032059E0314AF5
:10251800D36923F08053D361DCE72F4B00221A667E
:10252800FFF7E6F805462B4B1B6813F0007F06D033
:10253800FFF7DEF8401B0228F5D9032041E0236AA3
:10254800B3F5803F1AD023494B6823F47413226AE9
:10255800606A024313434B601F4B01221A66FFF760
:10256800C7F804461B4B1B6813F0007F0ED1FFF71A
:10257800BFF8001B0228F5D9032022E0154A53684A
:1025880023F40033A1680B435360DCE7002018E014
:10259800002016E0012B16D00E4B5B6803F4803147
:1025A800226A914211D103F47013626A93420ED1E8
:1025B800002006E001207047012002E0012000E031
:1025C800002002B070BD0120FBE70120F9E70120DF
:1025D800F7E700BF001002400000424286B0164BE9
:1025E8000FCB0DF1180C0CE90F0040F20123ADF8E8
:1025F8000430124B5B6803F00C02082A02D0104822
:1026080006B07047C3F38342624412F8100C13F407
:10261800803F0CD0094B5B68C3F34043634413F815
:10262800143C074A02FB00F0B0FBF3F0E8E7054B67
:1026380003FB00F0E4E700BFE45700080010024085
:1026480000127A0000093D00002800F0A08070B553
:102658000D460446524B1B6803F007038B420BD20E
:102668004F4A136823F007030B431360136803F002
:1026780007038B4240F08D80236813F0020F17D0B8
:1026880013F0040F04D0474A536843F4E0635360DF
:10269800236813F0080F04D0424A536843F4605388
:1026A8005360404A536823F0F003A1680B4353601A
:1026B800236813F0010F31D06368012B20D0022B5F
:1026C80025D0384A126812F0020F64D035494A689A
:1026D80022F0030213434B60FFF70AF80646314B1A
:1026E8005B6803F00C036268B3EB820F16D0FEF749
:1026F800FFFF801B41F288339842F0D9032045E060
:10270800284A126812F4003FE0D101203EE0254A31
:10271800126812F0007FD9D1012037E0204B1B68E6
:1027280003F00703AB420AD91D4A136823F00703D5
:102738002B431360136803F00703AB422DD12368C2
:1027480013F0040F06D0174A536823F4E063E168D6
:102758000B435360236813F0080F07D0114A5368DE
:1027680023F46053216943EAC1035360FFF736FF3E
:102778000C4B5B68C3F303130B4AD35CD8400B4B79
:1027880018600B4B1868FEF76FFF002070BD012022
:1027980070470120FAE70120F8E70120F6E700BFBB
:1027A8000020024000100240F857000834000020C2
:1027B80030000020014B1868704700BF340000202B
:1027C80008B5FFF7F7FF044B5B68C3F30223034A1E
:1027D800D35CD84008BD00BF00100240085800086C
:1027E80008B5FFF7E7FF044B5B68C3F3C223034A4E
:1027F800D35CD84008BD00BF00100240085800084C
:1028080030B4036A23F001030362036A42688469EF
:1028180024F073040D682C4323F0020C8B6843EA00
:102828000C03104DA84203D005F50065A84205D158
:1028380023F00803CD682B4323F00403094DA84275
:1028480003D005F50065A84205D122F440724D6910
:102858002A438D692A43426084614A68426303625D
:1028680030BC7047002C014030B4036A23F48073F5
:102878000362036A4268C46924F0730C0C6844EA72
:102888000C0523F400738C6843EA0423114CA0421E
:1028980003D004F50064A04206D123F40063CC6899
:1028A80043EA042323F480630A4CA04203D004F5CE
:1028B8000064A04207D122F440524C6942EA041253
:1028C8008C6942EA04124260C5614A68C2630362C5
:1028D80030BC7047002C014030B4036A23F48053A5
:1028E8000362036A4468C26922F4E6420D6842EA58
:1028F800052223F400538D6843EA0533094DA842A5
:1029080003D005F50065A84204D124F480444D693C
:1029180044EA85144460C2614A680264036230BCB8
:10292800704700BF002C014010B4036A046A24F009
:1029380001040462846924F0F00C4CEA021223F0CA
:102948000A030B438261036210BC704710B4046A27
:1029580024F0100404628469036A24F4704C4CEA7D
:10296800023223F0A00343EA01138261036210BC20
:102978007047836823F070030B4343F007038360B9
:102988007047000090F83D30DBB2012B2FD10223B5
:1029980080F83D300268D36843F00103D3600368D0
:1029A800154A934218D002F50062934214D0B3F14D
:1029B800804F11D0A2F5983293420DD002F5806273
:1029C800934209D002F58062934205D01A6842F01A
:1029D80001021A60002070479A6802F00702062A6E
:1029E80007D01A6842F001021A60002070470120DF
:1029F80070470020704700BF002C014070477047A7
:102A0800704770477047704710B5044603681A69E5
:102A180012F0020F11D0DA6812F0020F0DD06FF029
:102A280002021A610123037703689B6913F0030FFD
:102A380070D0FFF7E6FF0023237723681A6912F0A6
:102A4800040F12D0DA6812F0040F0ED06FF00402EF
:102A58001A610223237723689B6913F4407F5FD0B0
:102A68002046FFF7CEFF0023237723681A6912F068
:102A7800080F12D0DA6812F0080F0ED06FF00802B3
:102A88001A61042323772368DB6913F0030F4ED000
:102A98002046FFF7B6FF0023237723681A6912F050
:102AA800100F12D0DA6812F0100F0ED06FF010026B
:102AB8001A61082323772368DB6913F4407F3DD02C
:102AC8002046FFF79EFF0023237723681A6912F038
:102AD800010F03D0DA6812F0010F36D123681A69A2
:102AE80012F0800F03D0DA6812F0800F34D1236817
:102AF8001A6912F0400F03D0DA6812F0400F32D191
:102B080023681A6912F0200F03D0DA6812F0200F38
:102B180030D110BDFFF774FF2046FFF773FF8AE737
:102B28002046FFF76DFF2046FFF76CFF9BE7204626
:102B3800FFF766FF2046FFF765FFACE72046FFF783
:102B48005FFF2046FFF75EFFBDE76FF001021A61E5
:102B5800204601F07BFDC1E76FF080021A61204634
:102B680000F070FBC3E76FF040021A612046FFF7E0
:102B78004AFFC5E76FF020021A61204600F061FBAA
:102B8800C7E700000368244A904212D002F50062A9
:102B980090420ED0B0F1804F0BD0A2F598329042FF
:102BA80007D002F58062904203D002F5806290421D
:102BB80003D123F070034A681343174A904212D096
:102BC80002F5006290420ED0B0F1804F0BD0A2F512
:102BD8009832904207D002F58062904203D002F505
:102BE8008062904203D123F44073CA68134323F0F0
:102BF80080034A69134303608B68C3620B6883626E
:102C0800054B984203D003F50063984201D10B6944
:102C18000363012343617047002C014040B310B5A2
:102C2800044690F83D30F3B1022384F83D30214644
:102C380051F8040BFFF7A6FF012384F8463084F807
:102C48003E3084F83F3084F8403084F8413084F8CE
:102C5800423084F8433084F8443084F8453084F8AE
:102C68003D30002010BD80F83C3001F0A5F9DBE7CD
:102C78000120704740B310B5044690F83D30F3B1D9
:102C8800022384F83D30214651F8040BFFF77AFF00
:102C9800012384F8463084F83E3084F83F3084F8C5
:102CA800403084F8413084F8423084F8433084F866
:102CB800443084F8453084F83D30002010BD80F859
:102CC8003C30FFF79BFEDBE70120704740B310B5AF
:102CD800044690F83D30F3B1022384F83D30214694
:102CE80051F8040BFFF74EFF012384F8463084F8AF
:102CF8003E3084F83F3084F8403084F8413084F81E
:102D0800423084F8433084F8443084F8453084F8FD
:102D18003D30002010BD80F83C30FFF770FEDBE747
:102D280001207047002857D070B50D46044690F82A
:102D38003D30002B4BD0022384F83D302268936845
:102D480023F4804323F007039360214651F8040BD2
:102D5800FFF718FF21688A688B690E6A2868104394
:102D680023F4407C2CF0030CAA68AB6942EA0323E5
:102D780043EA0C0323F47C4323F0FC03EA69D5F807
:102D88000CC04CEA022C4CEA030C2A6A13032A6989
:102D980043EA021343EA0C0326F022066A686D69C7
:102DA80042EA05123243886021688B6123681A62FF
:102DB800012384F8463084F83E3084F83F3084F8A4
:102DC800423084F8433084F83D30002070BD80F8EC
:102DD8003C3001F031F9AEE70120704730B4036AA6
:102DE80023F010030362036A4468826922F4E6420E
:102DF8000D6842EA052223F020038D6843EA051393
:102E0800114DA84203D005F50065A84206D123F06C
:102E18008003CD6843EA051323F040030A4DA84216
:102E280003D005F50065A84207D124F440644D6934
:102E380044EA85048D6944EA8504446082614A68ED
:102E48008263036230BC7047002C014090F83C302C
:102E5800012B22D010B50446012380F83C300C2AFF
:102E68000BD8DFE802F0070A0A0A0E0A0A0A120A51
:102E78000A0A16000068FFF7C3FC002084F83C002B
:102E880010BD0068FFF7AAFFF7E70068FFF7ECFC42
:102E9800F3E70068FFF720FDEFE70220704738B539
:102EA80090F83C30012B60D004460D46012380F891
:102EB8003C300C2A1AD8DFE802F0071919191D1935
:102EC80019193119191944000068FFF799FC22688B
:102ED800936943F0080393612268936923F004031C
:102EE80093612268936929690B439361002084F8F0
:102EF8003C0038BD0068FFF771FF2268936943F40E
:102F0800006393612268936923F480639361226864
:102F18009369296943EA01239361E7E70068FFF7AA
:102F2800A3FC2268D36943F00803D3612268D369FC
:102F380023F00403D3612268D36929690B43D36161
:102F4800D4E70068FFF7C8FC2268D36943F400633C
:102F5800D3612268D36923F48063D3612268D3697B
:102F6800296943EA0123D361C0E70220C1E710B40D
:102F7800846824F47F4C42EA03220A4342EA0C02A2
:102F8800826010BC704790F83C30012B66D010B5B9
:102F98000446012380F83C30022380F83D30026863
:102FA800936823F47F4323F0770393600B68602BC7
:102FB80040D022D8402B47D00BD9502B0ED1CA680D
:102FC80049680068FFF7B0FC50212068FFF7D1FC82
:102FD80004E0202B0CD008D9302B09D0012384F829
:102FE8003D30002084F83C0010BD0BB1102BF5D10A
:102FF80019462068FFF7BDFCF0E7702B0ED0B3F53B
:10300800005FEBD1CB684A6889680068FFF7AFFFBB
:103018002268936843F480439360DFE7CB684A688B
:1030280089680068FFF7A3FF2268936843F0770375
:103038009360D3E7CA6849680068FFF787FC602196
:103048002068FFF796FCC9E7CA6849680068FFF777
:103058006BFC40212068FFF78CFCBFE7022070471B
:1030680001F01F01012303FA01FC036A23EA0C03A0
:103078000362036A02FA01F10B430362704700001E
:1030880010B50446084600293AD194F83E30DBB220
:10309800013B18BF0123002B66D1002849D1022328
:1030A80084F83E30012201462068FFF7D9FF2368E3
:1030B8002F4A934203D002F50062934203D15A6C1F
:1030C80042F400425A642368294A934241D002F5E7
:1030D800006293423DD0B3F1804F3AD0A2F59832C6
:1030E800934236D002F58062934232D002F5806274
:1030F80093422ED01A6842F001021A60002032E092
:10310800042908D008290DD094F84130DBB2013BDE
:1031180018BF0123BFE794F83F30DBB2013B18BF6B
:103128000123B8E794F84030DBB2013B18BF012314
:10313800B1E7042805D0082807D0022384F84130D5
:10314800B0E7022384F83F30ACE7022384F840302C
:10315800A8E79A6802F00702062A07D01A6842F020
:1031680001021A60002010BD0120FCE70020FAE7E8
:10317800002C014090F83C30012B34D010B40123CE
:1031880080F83C30022380F83D3003685A689C6818
:1031980022F0700C0A6842EA0C025A600368134A6B
:1031A800934212D002F5006293420ED0B3F1804FE1
:1031B8000BD0A2F59832934207D002F58062934271
:1031C80003D002F58062934204D124F080044A6857
:1031D80014439C60012380F83D30002380F83C3084
:1031E800184610BC70470220704700BF002C0140F1
:1031F80090F83C30012B22D0012380F83C30CB687A
:1032080023F440738A68134323F480634A681343A2
:1032180023F400630A68134323F480530A691343B1
:1032280023F400534A69134323F48043CA691343C0
:1032380002685364002380F83C3018467047022027
:103248007047704770470268D36823F0C003D360A3
:10325800202380F8393070470268D36823F49073CC
:10326800D3600268536923F001035361202380F877
:103278003A30704790F83930DBB2212B01D0022068
:1032880070478368B3F5805F17D0036A5A1C0262DF
:103298001A7803685A60C38C9BB2013B9BB2C38403
:1032A8004BB90268D36823F08003D3600268D368FF
:1032B80043F04003D360002070470369002BE4D13A
:1032C800036A1B880268C3F308035360036A023366
:1032D8000362E0E710B504460268136923F440531B
:1032E800C1680B43136183680269134342691A4337
:1032F8000168CB6823F4B05323F00C031343CB606D
:103308000268536923F4407381690B43536102686F
:10331800134B9A4220D0FFF753FA024602EB82027F
:1033280002EB820263689B00B2FBF3F20D48A0FB3C
:1033380002314909642303FB11231B013233A0FB2B
:1033480003235B0903F0F00202EB011203F00F0301
:10335800216813448B6010BDFFF742FA0246DDE78F
:10336800003801401F85EB512DE9F84305460F460B
:1033780016469946DDF820802C68246837EA04034D
:103388000CBF4FF0010C4FF0000CB4451FD1B8F141
:10339800FF3FF1D0B8F1000F05D0FEF7A9F9A0EB77
:1033A80009004045E8D92A68D36823F4D073D3606C
:1033B8002A68536923F001035361202385F83930C3
:1033C80085F83A30002385F83830032000E00020E3
:1033D800BDE8F88358B310B5044690F839300BB3FC
:1033E800242384F839302268D36823F40053D36047
:1033F8002046FFF76FFF2268136923F49043136197
:103408002268536923F02A0353612268D36843F47E
:103418000053D3600020E063202384F8393084F817
:103428003A3010BD80F8383000F0BAFED8E70120F5
:1034380070472DE9F04182B01E4690F83930DBB272
:10344800202B54D104460D469046002953D0002A1B
:1034580053D090F83830012B51D0012380F8383000
:103468000023C363212380F83930FEF741F907466A
:10347800A4F82480A4F82680A368B3F5805F05D05B
:103488004FF00008002384F8383012E0236913B1A4
:103498004FF00008F6E7A8460025F3E738F8023BA6
:1034A8002268C3F308035360E28C92B2013A92B2E5
:1034B800E284E38C9BB273B100963B4600228021E4
:1034C8002046FFF751FFE0B9002DE7D015F8012B92
:1034D80023685A60E8E700963B46002240212046D0
:1034E800FFF742FF78B9202384F8393000E0022042
:1034F80002B0BDE8F0810120FAE70120F8E70220D8
:10350800F6E70320F4E70320F2E72DE9F04182B063
:103518001E4690F83A30DBB2202B5BD104460D46AC
:10352800904600295AD0002A5AD090F83830012BFA
:1035380058D0012380F838300023C363222380F851
:103548003A30FEF7D5F80746A4F82C80A4F82E8068
:10355800A368B3F5805F05D04FF00008002384F816
:10356800383017E0236913B14FF00008F6E7A84692
:103578000025F3E723685B68C3F3080328F8023BD8
:1035880003E023685B682B700135E28D92B2013A43
:1035980092B2E285E38D9BB2BBB100963B46002216
:1035A80020212046FFF7E0FEF0B9002DE2D0A36805
:1035B800B3F5805FE5D013B92369002BE1D0236808
:1035C8005B6803F07F032B70DEE7202384F83A3032
:1035D800002000E0022002B0BDE8F0810120FAE7F7
:1035E8000120F8E70220F6E70320F4E730B583B0BE
:1035F800044690F83A00C0B220283CD100293DD0BA
:10360800002A3DD094F83830012B3BD0012384F8B0
:103618003830A162A2850025E563222384F83A3078
:10362800636B19489862636B1848D862636B1848D3
:103638001863636B5D63206813460A46011D606B5F
:10364800FEF72AF9019523681A6801925A680192CF
:10365800019A84F83850DA6842F48072DA60226895
:10366800536943F0010353612268536943F04003EF
:103678005361284600E0022003B030BD0120FBE77B
:103688000120F9E70220F7E71F370008F3370008A1
:10369800FF37000810B5044601684A6990F83930C8
:1036A800DBB2212B0AD021684A6902F0400294F863
:1036B8003A30DBB2222B11D0002010BD02F080027C
:1036C800002AF0D04B6923F080034B61006B08B1EE
:1036D800FEF71CF92046FFF7B6FDE4E7002AEBD019
:1036E8004B6923F040034B61606B08B1FEF70EF99C
:1036F8002046FFF7B1FDDFE7704708B50168CA68E3
:1037080022F04002CA60202280F83920FFF7F4FF37
:10371800002008BD704708B50346406A1B681B684F
:1037280013F0200F13D10023C3850268D36823F454
:103738008073D3600268536923F001035361026800
:10374800536923F040035361202380F83A30FFF790
:10375800E1FF08BD08B590F83A30DBB2222B41D121
:103768008368B3F5805F14D0826AB3F5805F02D0B6
:10377800E3B90369D3B903685B681370836A0133DB
:103788008362C38D9BB2013B9BB2C385A3B100206A
:1037980008BD0269002AE7D1826A03685B68C3F33F
:1037A80008031380836A02338362EAE703685B686D
:1037B80003F07F031370E1E70268D36823F0200366
:1037C800D3600268D36823F48073D36002685369B6
:1037D80023F001035361202380F83A30FFF79AFF62
:1037E8000020D5E70220D3E7704708B5406AFFF705
:1037F800FBFF08BD704710B5446A23685A6994F8FE
:103808003930DBB2212B10D023685A6902F040020C
:1038180094F83A30DBB2222B11D0E36B43F010035B
:10382800E3632046FFF7E6FF10BD02F08002002A9E
:10383800EAD00023E3842046FFF705FDE4E7002AE9
:10384800EBD00023E3852046FFF706FDE5E70000FF
:1038580010B5044602681368D168526913F00F0066
:1038680005D113F0200F02D011F0200F13D128B189
:1038780012F0010213D111F4907F10D113F0800FD0
:1038880002D011F0800F6CD113F0400F02D011F06C
:10389800400F6AD110BD2046FFF75CFFFAE713F02E
:1038A800010F06D011F4807F03D0E06B40F00100D7
:1038B800E06313F0040F04D01AB1E06B40F002008B
:1038C800E06313F0020F04D01AB1E06B40F004007B
:1038D800E06313F0080F07D011F0200F00D11AB1E0
:1038E800E26B42F00802E263E26B002AD2D013F0E6
:1038F800200F02D011F0200F21D123685B6903F05B
:103908004003E26B12F0080F00D123B32046FFF703
:10391800A3FC23685A6912F0400F18D05A6922F0A4
:1039280040025A61636B73B1124A5A63606BFEF7C7
:103938000FF80028AED0606B436B9847AAE7204683
:10394800FFF708FFD9E72046FFF754FFA2E7204614
:10395800FFF750FF9EE72046FFF74CFF0023E36385
:1039680098E72046FFF786FC94E72046FFF7C5FE58
:1039780090E700BF8139000808B5406A0023C38575
:10398800C384FFF737FF08BD38B504460268D3681B
:1039980023F00C03D36001680A6922F47C5283691E
:1039A800C0690343206A0343E0680343134343F4B5
:1039B80000630B612168CA6822F4B05222F00C023D
:1039C800A36820690343606903431343CB602268FB
:1039D800536923F4407353612268224B9A4220D0E2
:1039E800FEF7EEFE00EB800000EB800063689B00B2
:1039F800B0FBF3F01C4DA5FB00325109642303FB17
:103A080011031B013233A5FB03235B095A0002F49F
:103A1800F07202EB011203F00F03216813448B606C
:103A280038BDFEF7DDFE00EB800000EB8000636828
:103A38009B00B0FBF3F00C4DA5FB00325109642349
:103A480003FB11031B013233A5FB03235B095A0057
:103A580002F4F07202EB011203F00F032168134421
:103A68008B60DDE7003801401F85EB5120B310B5AE
:103A7800044690F83D30D3B1022384F83D30204607
:103A8800FFF782FF2268136923F4804313612268D9
:103A9800536923F02A0353612268D36843F400531F
:103AA800D36000202064012384F83D3010BD80F8E5
:103AB8003C3000F0E9FBDFE70120704784B0134B8E
:103AC8009A6942F020029A619A6902F020020092F3
:103AD800009A9A6942F004029A619A6902F0040213
:103AE8000192019A9A6942F008029A619A6902F071
:103AF80008020292029A9A6942F010029A619B693E
:103B080003F010030393039B04B0704700100240B6
:103B180000B583B00E4B5A6942F001025A615B69E5
:103B280003F001030193019B002211460C20FDF7CD
:103B3800F7FD0C20FDF72CFE002211460D20FDF7A5
:103B4800EFFD0D20FDF724FE03B05DF804FB00BF78
:103B58000010024030B583B00025009501950A4C4D
:103B68000A4B236009236360A56041F61F43E360A5
:103B7800A5612046FFF752F8009501956946204651
:103B8800FFF7F8FA03B030BDAC0B0020001000407E
:103B980030B587B0002402940394049405940094EB
:103BA80001940E4D0E4B2B606C60AC604FF6FF73AA
:103BB800EB602C616C61AC612846FFF72FF84FF47D
:103BC8008053029302A92846FFF7DDF90094019477
:103BD80069462846FFF7CEFA07B030BDF40B00203F
:103BE8000034014030B597B0002412941394149413
:103BF80015941094119409940A940B940C940D94B0
:103C08000E940F942022214601A800F05BFD284D58
:103C1800284B2B606C60AC604FF6FF73EB602C6137
:103C28006C61AC612846FEF7F9FF4FF4805312939C
:103C380012A92846FFF7A7F92846FFF747F82846AC
:103C4800FFF718F81094119410A92846FFF792FA74
:103C5800602309930A940B940C940D940E940F947A
:103C6800224609A92846FFF71AF9042209A9284675
:103C7800FFF715F90994082209A92846FFF7E6F87D
:103C88000C2209A92846FFF7E1F80194029403944D
:103C9800049405944FF400530693089401A9284608
:103CA800FFF7A6FA284600F053FA17B030BD00BF58
:103CB8008C0A0020002C014030B58DB02422002150
:103CC80003A800F0FFFC0025019502950C4C0D4B54
:103CD80023606560A5604FF6FF73E3602561A56109
:103CE800012303930593099303A92046FFF71AF8C4
:103CF8000195029501A92046FFF73CFA0DB030BDA9
:103D08001C0B00200004004030B58DB02422002197
:103D180003A800F0D7FC0025019502950D4C4FF043
:103D2800804323606560A5604FF6FF73E3602561FB
:103D3800A561012303930593099303A92046FEF780
:103D4800F1FF0195029501A92046FFF713FA0DB07E
:103D580030BD00BFD40A002030B58DB02422002128
:103D680003A800F0AFFC0025019502950C4C0D4B03
:103D780023606560A5604FF6FF73E3602561A56168
:103D8800012303930593099303A92046FEF7CAFF6D
:103D98000195029501A92046FFF7ECF90DB030BD59
:103DA800640B0020000C004008B50848084B03606D
:103DB8004FF4E133436000238360C36003610C2246
:103DC80042618361C361FFF705FB08BD7C0C0020DD
:103DD800004C004008B50848084B03604FF4E13335
:103DE800436000238360C36003610C2242618361E6
:103DF800C361FFF7EFFA08BD3C0C00200044004007
:103E080008B50948094B03604FF4E13343600023C8
:103E18008360C36003610C2242618361C3610362F2
:103E2800FFF724FE08BD00BFBC0C0020004800407E
:103E380008B50948094B0360094B436000238360B8
:103E4800C3604FF48042026143618361C3610362CE
:103E5800FEF7C8F808BD00BF380A0020005400402B
:103E6800A086010010B590B02822002106A800F015
:103E780029FC0024019402940394049405940223D9
:103E8800069301230A9310230B9306A8FEF79EF9C5
:103E98000F2301930294039404940594214601A8E6
:103EA800FEF7D2FB10B010BD08B5FDF703FCFFF715
:103EB800D9FFFFF703FEFFF72BFEFFF793FEFFF78F
:103EC800FBFEFFF747FEFFF76FFFFFF799FFFFF7CE
:103ED8001BFFFFF77FFFFFF73FFFFFF7A9FFFFF784
:103EE80057FE074800F090FA064B00221A60FDF7CB
:103EF800F3F800F013FB0448FEF744FDFEE700BFAB
:103F08007C0C00207C0D0020AC0B002070470000CA
:103F180082B00E4B9A6942F001029A619A6902F0E6
:103F280001020092009ADA6942F08052DA61DB6994
:103F380003F080530193019B054A536823F0E06323
:103F480043F00073536002B0704700BF0010024096
:103F58000000014010B586B0002302930393049338
:103F680005930268114B9A4201D006B010BD104C5F
:103F7800A36943F00803A361A36903F0080300934E
:103F8800009BC0230293122303930323059302A9E2
:103F98000848FDF707FFE36943F40013E361E369A9
:103FA80003F400130193019BDFE700BF00540040B6
:103FB80000100240000C014000B585B003681A4AA1
:103FC800934208D0194A934210D0194A934220D0FC
:103FD80005B05DF804FB174B9A6942F400629A61D8
:103FE8009B6903F400630193019BF1E7114BDA69C4
:103FF80042F01002DA61DB6903F010030293029BBE
:10400800002211463620FDF78BFB3620FDF7C0FB5A
:10401800DEE7084B9A6942F400529A619B6903F4FF
:1040280000530393039BD3E7002C0140001000408A
:10403800003401400010024000B58DB00023089301
:1040480009930A930B930368B3F1804F08D03A4A57
:1040580093423CD0394A934253D00DB05DF804FBEB
:1040680003F50433DA6942F00102DA61DA6902F031
:1040780001020192019A9A6942F004029A619A69CE
:1040880002F004020292029A9A6942F008029A61C6
:104098009B6903F008030393039B4FF400430893C1
:1040A80008A92748FDF77EFE0823089300230993F3
:1040B8000A9308A92348FDF775FE234A536823F499
:1040C800407343F0E06343F480735360C5E71F4BCC
:1040D800DA6942F00202DA61DA6902F00202049255
:1040E800049A9A6942F004029A619B6903F00403F6
:1040F8000593059BC023089308A91148FDF752FEB4
:10410800ABE7124BDA6942F00802DA61DA6902F0C9
:1041180008020692069A9A6942F004029A619B691B
:1041280003F004030793079B0323089308A9044893
:10413800FDF738FE91E700BF00040040000C004086
:1041480000080140000C014000000140001002403E
:1041580000B587B000230293039304930593026884
:104168000D4B9A4202D007B05DF804FB03F5644397
:104178009A6942F004029A619B6903F0040301936F
:10418800019B4FF47063029302230393059302A9E2
:104198000248FDF707FEE6E7002C01400008014051
:1041A80030B589B0002304930593069307930368F9
:1041B800304A934204D0304A934233D009B030BDDC
:1041C8002E4BDA6942F40022DA61DA6902F400223D
:1041D8000092009A9A6942F010029A619B6903F072
:1041E80010030193019B4FF480630493022305930A
:1041F80003230793224D04A92846FDF7D3FD4FF466
:104208000063049300240594069404A92846FDF746
:10421800C9FD224621463420FDF782FA3420FDF7F5
:10422800B7FACBE7154BDA6942F40032DA61DA699A
:1042380002F400320292029A9A6942F004029A61E8
:104248009B6903F004030393039B04230493022351
:104258000593032307930B4C04A92046FDF7A2FD01
:104268000823049300230593069304A92046FDF729
:1042780099FDA3E7004C00400044004000100240B4
:10428800001001400008014070B586B00023029379
:104298000393049305930268334B9A4201D006B006
:1042A80070BD044603F5E433DA6942F48022DA612A
:1042B800DA6902F480220092009A9A6942F00802B0
:1042C8009A619B6903F008030193019B4FF4A05383
:1042D80002930223039303230593244E02A9304635
:1042E800FDF760FD4FF400630293002503950495E4
:1042F80002A93046FDF756FD1D481E4B0360456078
:1043080085608023C3600561456185614FF48053F2
:10431800C361FDF775FA00BB154BA3635C621648D1
:10432800164B036010234360002383608022C26021
:104338000361436183614FF48053C361FDF760FA01
:1043480070B90D4B63635C62002211462720FDF7AC
:10435800E7F92720FDF71CFAA1E7FFF7D7FDDBE710
:10436800FFF7D4FDEDE700BF00480040000C014016
:10437800B009002030000240F40900201C0002406F
:104388007047FEE7FEE7FEE7FEE7704770477047B5
:1043980008B5FDF7A1F908BD08B50248FDF78CFB83
:1043A80008BD00BFF409002008B50248FDF784FBEA
:1043B80008BD00BFB009002008B50248FEF724FB7D
:1043C80008BD00BFAC0B002008B503460B4A1268B5
:1043D80042B10A4A106803446A46934206D8074A1B
:1043E800136008BD054A06491160F2E700F040F97C
:1043F8000C2303604FF0FF30F3E700BF000D0020EF
:10440800C80D00207047000008B5054B1860054B23
:104418001868002302221946806800F0A5F908BD33
:10442800040D00206800002010B5013801280AD8C2
:1044380014464FF0FF3392B207480068FEF7F9FFC1
:1044480040B9204610BD00F013F9092303604FF06E
:10445800FF30F7E70520F5E7040D0020022801D812
:104468000020704708B500F003F9092303604FF0F6
:10447800FF3008BD08B500F0FBF8092303604FF0D2
:10448800FF3008BD08B548B94FF0FF33012208488E
:104498000068FFF73AF840B9012008BD00F0E8F8D5
:1044A800092303604FF0FF30F7E70520F5E700BF69
:1044B800040D002008B5022804D84FF400534B60BF
:1044C800002008BD00F0D4F809230360F8E70000D5
:1044D800002103E00B4B5B58435004310A480B4B57
:1044E80042189A42F6D30A4A02E0002342F8043BF3
:1044F800084B9A42F9D3FFF785FF00F0BFF8FFF7A2
:10450800D3FC70472058000800000020AC080020A9
:10451800AC080020C80D0020FEE700000B4B0C4A39
:104528005A610C4818600C4A5A6000229A604FF091
:104538007E51D9609861094B094818605A609A60A1
:10454800084A5A61084A1A61D9607047600D00200C
:104558000000E1450000484300002042140D0020FF
:104568003333334000004842000048C22DE9F04F81
:1045780083B004460E464569D0F810B0A5EB0B058C
:1045880045608768E81BFCF79BFA8046D4F80090E2
:10459800D6F814A051464846FCF7A2FC50B9584634
:1045A800FCF78EFA0190D6F818B05946FCF798FC3B
:1045B80000282FD0002D28DB4FF0000BA5EB47007B
:1045C800E3681844FCF77CFA824641463068FCF7F9
:1045D800CBFA804659467068FCF7C6FA0146404651
:1045E800FCF7BAF980465146B068FCF7BDFA0146B7
:1045F8004046FCF7B1F901464846FCF7ADF92060A2
:10460800E760A56003B0BDE8F08F2846FCF758FACC
:104618008346D3E70AF100414846FCF743FC28B932
:104628000BF100410198FCF73DFC30B1002D09DD8C
:104638002846FCF745FA8346C0E72846FCF740FAC7
:104648008346BBE74FF0000BB8E7000008B5074BFF
:10465800834200D008BDFCF769FD00220A21084604
:10466800FCF7F6FFFCF7BEFDF4E700BFAC0B00203B
:10467800014B1868704700BF6800002070B50D4EE8
:104688000D4D761BB61006D0002455F8043B0134B6
:104698009847A642F9D1094E094D01F093F8761BC7
:1046A800B61006D0002455F8043B01349847A642BA
:1046B800F9D170BD14580008145800081C58000897
:1046C80014580008830730B548D0541E002A3FD03C
:1046D8000346CAB201E0013C3AD303F8012B9D0717
:1046E800F9D1032C2DD9CDB245EA05250F2C45EA81
:1046F800054536D9A4F1100222F00F0C03F1200E63
:10470800E6444FEA121C03F1100242E9045542E95B
:10471800025510327245F8D10CF1010214F00C0F59
:1047280003EB021204F00F0C13D0ACF1040323F0D6
:1047380003030433134442F8045B9342FBD10CF0A7
:1047480003042CB1CAB21C4403F8012B9C42FBD1D0
:1047580030BD64461346002CF4D1F9E703461446ED
:10476800BFE71A46A446E0E72DE9F043694C0E4638
:10477800D4F80080174604461D4683B0B8F1000FF0
:1047880003D0D8F83830002B77D0022F05D0012F6E
:1047980000F2AC80002DC0F2A980636EDA0752D512
:1047A8002146404600F05AF9216B41B104F140031B
:1047B800994202D0404600F07DFA0023236300238B
:1047C800B4F90CC0A3611CF0800F636064D12CF4B1
:1047D8004A6C2CF0030C022FA4F80CC06AD001AB71
:1047E800214640466A4600F091FBA3891843A08100
:1047F800002D2FD0002E2ED0D8F83830002B38D0EE
:10480800009BC4E90465AB42B4F90C3026601CBFB8
:1048180043F40063A381012F04BF43F00103A38184
:104828009AB213F008032CD0D1075DD500216D4250
:10483800A561656EA16015F0010527D00025284601
:1048480003B0BDE8F083A3899B05A9D4A06D00F04F
:1048580059FBA5E7009D284600F088FB064600287E
:1048680047D0A38943F08003A381D8F83830002BC0
:10487800C6D1404600F026F9C2E7404600F022F9CA
:1048880083E7A360656E15F00105D7D1930524D59C
:10489800284603B0BDE8F0834046216900F00AFAD3
:1048A800B4F90CC0022F2CF44A6C2CF0030CA4F8B9
:1048B8000CC094D100250021012204F14303236098
:1048C8002361636E4CF0020CD807A4F80CC0A160F9
:1048D8006261DDD41CF4007FDAD1A06D00F014FB16
:1048E800284603B0BDE8F083A560CBE74FF0FF355D
:1048F800CEE7DDF80090A94504D0484600F036FB25
:10490800064620B94FF0FF35B4F90CC0D3E74D4641
:10491800A7E700BF68000020024B13B1024800F06F
:1049280005B8704700000000F14B0008002301465D
:104938001A46184600F048BEB1F90C20F8B50C46E6
:104948001107074643D4636842F40062002BA28132
:104958005BDDA56A002D56D000233E683B6093B20C
:1049680012F4805255D101233846E169A847421C08
:1049780065D0A389A56A5B0705D56368C01A236B50
:104988000BB1E36BC01A0246E16900233846A84719
:10499800411C40D13B68002B3DD01D2B01D0162B6C
:1049A80054D10022A38923F40063A3812369C4E9B5
:1049B8000032216B3E6031B304F14003994202D0CA
:1049C800384600F077F9002318462363F8BD2669B6
:1049D800CEB193B29A0718BF0023256808BF636950
:1049E8002660AD1BA3600CE02B463246D4F824C0E9
:1049F8003846E169E047B0F1000CA5EB0C056644C8
:104A080016DD002DF0DC0020F8BDE36B002BA0DCE8
:104A1800F9E7206DAFE70022B4F90C30626023F4A7
:104A280000632269A381DB042260C2D52065C0E748
:104A3800A3894FF0FF3043F04003A381F8BD3B68E2
:104A4800002B96D01D2B06D0162B04D0A38943F03B
:104A58004003A381F8BD00203E60F8BD38B5054687
:104A68000C4608B1836BA3B1B4F90C00B8B1636EFE
:104A7800DB0701D4810515D528462146FFF75CFFE1
:104A8800636E0546DA0702D4A3899B050ED528462E
:104A980038BD00F017F8B4F90C000028E7D1054636
:104AA800284638BDA06D00F02DFAE5E7A06D00F0AE
:104AB8002BFA284638BD00BF014900F0FBB900BFFA
:104AC800815600082DE9F0478246394800F01AFA65
:104AD800DAF83840002C66D1042303223549DAF885
:104AE8000450CAF83C10DFF8D090DFF8D080344F7B
:104AF800344E0AF53B71CAE9B921CAF8E0422146A9
:104B0800EB600822C5E90044C5E904446C66AC6062
:104B1800AC6105F15C00FFF7D5FDC5E90759C5E9AA
:104B28000987EE6205F1580000F0E8F9DAF8085054
:104B3800254B2146EB600822C5E90044C5E9044439
:104B48006C66AC60AC6105F15C00FFF7BBFDC5E9C4
:104B58000759C5E90987EE6205F1580000F0CEF95A
:104B6800DAF80C50194B2146EB600822C5E90044DD
:104B7800C5E904446C66AC60AC6105F15C00FFF704
:104B8800A1FD05F15800C5E90759C5E90A76C5F838
:104B9800248000F0B3F901230548CAF83830BDE88D
:104BA800F04700F0B1B90248BDE8F04700F0ACB9F1
:104BB8008C0D0020C14A0008195500083D55000811
:104BC8007D5500089D5500080900010012000200EB
:104BD800014800F097B900BF880D0020014800F097
:104BE80093B900BF880D002038B5084B084D5B1BF2
:104BF8009C1007D0043B1D44013C55F804399847E4
:104C0800002CF9D1BDE8384000F0E2BD205800087A
:104C18001C580008F8B50C46234F064600F05AFC0D
:104C2800BB685D68C4F57E6325F003050F332B442C
:104C380023F47F6323F00F03A3F58054B4F5805F5A
:104C480007DB0021304600F051FCBB682B4498423A
:104C580004D0304600F044FC0020F8BD30466142E4
:104C680000F044FC01300DD0104ABB682D1B45F004
:104C780001055D60136830461B1B136000F030FCB3
:104C88000120F8BD0021304600F030FCBA68831AD4
:104C98000F2BDEDD43F001035360054B03491B680E
:104CA800C01A0860D5E700BF9C040020900D0020C2
:104CB800A408002000295ED0F8B50C46064600F08E
:104CC80009FC54F8042C784FA4F1080522F00101DE
:104CD8006818D7F808C04368844523F0030300F038
:104CE8008780D207436034D454F8082C07F10804AD
:104CF800AD1A1144AA68A24268D000EB030CDCF894
:104D080004E0D5F80CC01EF0010FC2F80CC0CCF8B6
:104D1800082000F0918041F001036B600160B1F55B
:104D2800007F31D24A09CB08012191407A680133CA
:104D38001143796007EBC30257F83310083AC5E905
:104D4800021247F83350CD603046BDE8F84000F015
:104D5800C7BBC2185268D2070ED4194407F1080419
:104D68008368A34270D0C268DA60936041F001039F
:104D78006B606950D3E7704741F00103B1F5007FDC
:104D880044F8043C0160CDD3B1F5206F4FEA5123BC
:104D980047D28B0903F1390003F13802C300F81830
:104DA800FB580838984258D05A6822F003028A42C1
:104DB80002D99B689842F7D1D868C5E90230856066
:104DC8003046DD60BDE8F84000F08ABBC218526882
:104DD800D20763D40B44D0E90212CA60916043F051
:104DE80001026A603046EB50BDE8F84000F078BB3D
:104DF8000B44D10707D454F8082CAD1A1344D5E94D
:104E08000212CA60916043F001026A60274ABD60DD
:104E180012689A4298D8264B30461968FFF7FAFE6E
:104E280092E7142B0AD9542B1FD80B0B03F16F00F0
:104E380003F16E02C300B2E7194491E703F15C0085
:104E480003F15B02C300AAE741F00103C7E9045577
:104E5800C5E902446B60695076E70121921001FAB6
:104E680002F279680A437A60A7E7B3F5AA7F06D801
:104E7800CB0B03F1780003F17702C3008FE740F210
:104E88005452934206D88B0C03F17D0003F17C0247
:104E9800C30084E74FF47E737E2280E741F001036C
:104EA8006B60016050E700BF9C040020A808002048
:104EB800C00D00202DE9F8434FF000090746884649
:104EC80000F53876D6E90154013D10D4A389013D97
:104ED800012B08D9B4F90E30013304D021463846E5
:104EE800C04749EA00096B1C04F16804EED1366832
:104EF800002EE7D14846BDE8F88300BF704700BFE1
:104F0800704700BF704700BF704700BF70B50C46C0
:104F1800B1F90E10154600291E4696B014DB6A46F4
:104F280000F010FC00280FDB019A4FF4806302F4B4
:104F38007042A2F50052B2FA82F24FF400605209B0
:104F480032602B6016B070BD0023B4F90C103360CA
:104F580011F0800004D0402218462A6016B070BDB7
:104F68004FF480632B6016B070BD00BF024B014642
:104F7800186800F003B800BF680000202DE9F04F62
:104F880001F10B05162D064683B025D8102900F22D
:104F9800B88000F09FFA102518224FF0020CB54F88
:104FA8003A445368A2F108018B4200F0B7805A686E
:104FB800D96822F003021A449C683046E1608C608C
:104FC800516803F1080441F00101516000F088FACA
:104FD800204603B0BDE8F08F35F0070500F1918059
:104FE800A94200F28E8000F075FAB5F5FC7FC0F09A
:104FF80094816B0A00F08C80042B00F26A81AB0963
:1050080003F1390C03F138044FEACC00994F3844C6
:1050180043680838984206D10CE0002980F22681BE
:10502800DB68984206D05A6822F00302511B0F2908
:10503800F3DDA4463C69DFF840E274457AD0626843
:1050480022F00302531B0F2B00F37681002BC7E9D4
:1050580004EE80F26781B2F5007F80F019810121AA
:10506800D30852090B4491407A6857F833000A4331
:1050780007EBC3010839A060E1607A6047F8334064
:10508800C46001214FEAAC039940914259D81142BA
:1050980006D12CF0030C490011420CF1040CFAD093
:1050A80007EBCC0948466446D0F80C80404508D147
:1050B8001CE1002B80F22181D8F80C80404500F0DB
:1050C8001581D8F8042022F00302531B0F2BF0DDC2
:1050D80008EB050145F00105C8F804503046D8E949
:1050E8000264F460A66043F00104C7E904114C604F
:1050F800C1E902EE48F8023000F0F2F908F10804BC
:1051080002E00C2300243360204603B0BDE8F08F92
:105118004FF400704FF0400C3F2477E7D3689A4271
:1051280008BF0CF1020C7FF442AF3C69DFF848E19C
:10513800744584D101217A684FEAAC0399409142C1
:10514800A5D9BC68636823F003094D4503D8A9EBCA
:1051580005030F2B7ADCDFF824B1494BDBF800207C
:105168001B6801322B4404EB090A00F02F8103F578
:1051780080530F3323F47F6828F00F0841463046E8
:1051880000F0B4F9411C024600F0EF80824500F2BD
:10519800EA803C4B196841440846196000F049818F
:1051A800DBF80010019301311BBFA2EB0A0A50443F
:1051B800CBF80020186012F0070B00F01181CBF13A
:1051C80008010A44CBF5805190440831A1EB08014D
:1051D800C1F30B0A51463046009200F087F9421C91
:1051E800DDE9002300F04B81801A00EB0A081968FA
:1051F80048F001005144BC42BA601960506000F0A8
:105208002481B9F10F0F40F222814FF0050E60683A
:10521800A9F10C0C2CF0070C00F0010040EA0C007E
:105228006060BCF10F0F04EB0C00C0E901EE00F266
:105238002E8114465068144B1A688A4238BF196088
:10524800124B1A688A4238BF196090E0621943F01D
:10525800010345F0010565603046BA6008345360C3
:1052680000F03EF9204603B0BDE8F08FD9681A4433
:10527800A2E600BF9C040020A4040020A40800208B
:10528800C00D0020900D0020B80D0020BC0D00209E
:10529800B2F5206F4FEA52235FD3142B00F2B1808E
:1052A80003F15C01C9005B337818795808388842E3
:1052B80000F08F804B6823F00303934202D989687A
:1052C8008842F7D1C8687A68C4E902108460CC6063
:1052D800D7E6142B59D9542B00F29B802B0B03F1E2
:1052E8006F0C03F16E044FEACC008FE60134A3077C
:1052F80000F108007FF4D8AE53E0444642445368B6
:10530800D8F80C1043F00103536054F8083F3046B6
:10531800D9608B6000F0E4F8F6E64FEAD50C05F1A9
:1053280008023CE622445368304643F001035360C8
:1053380000F0D6F80834E7E6611945F00105656024
:1053480043F00105C7E904113046C1E902EE4D609A
:10535800A35000F0C5F80834D6E6930903F13901E3
:10536800C9003833A0E7BC425ED0BC68606820F052
:1053780003084545A8EB050302D80F2B3FF766AF96
:10538800304600F0ADF80024BEE603F15C0C03F1F2
:105398005B044FEACC0039E659F808394B4540F030
:1053A80095801CF0030F0CF1FF3CF5D17B6823EAD4
:1053B80001037B60490099423FF6C3AE11B9C0E6CC
:1053C800490004341942FBD0A44669E603F11008E9
:1053D800D4E601229B109A407B681A437A6073E7EF
:1053E80002EB08014942C1F30B0A514630460092CC
:1053F80000F07CF8431CDDE900237FF4F5AEDA46C3
:10540800F5E6542B26D8130B03F16F01C9006E3350
:105418004AE7B3F5AA7F26D8EB0B03F1780C03F122
:1054280077044FEACC00F1E5294B1868404418602E
:10543800B6E6CAF30B0CBCF1000F7FF4B1AEBC6842
:10544800C84448F001006060F5E61446F3E601231D
:10545800536095E7B3F5AA7F24D8D30B03F17801FD
:10546800C900773320E740F25452934224D8AB0C5A
:1054780003F17D0C03F17C044FEACC00C6E5ABF1E7
:10548800080BD8444FF0000AA8EB0208AFE604F175
:10549800080130460093FFF70DFCBC68009B60686C
:1054A8001968C8E640F254518B420BD8930C03F1AB
:1054B8007D01C9007C33F7E64FF47E704FF07F0C16
:1054C8007E24A3E54FF47E717E23EDE67B6871E7C9
:1054D800900D00200148FFF715BD00BF840D002086
:1054E8000148FFF711BD00BF840D0020002238B528
:1054F800064D044608462A60FEF766FF431C00D0A6
:1055080038BD2B68002BFBD0236038BDC40D0020AC
:1055180010B50C46B1F90E1000F03EF9002803DB77
:10552800236D0344236510BDA38923F48053A3810D
:1055380010BD00BF2DE9F0410C46B1F90C101F4613
:10554800CB05054616460BD421F48051A1813B4674
:1055580032462846B4F90E10BDE8F04100F01EB8F6
:10556800B4F90E100223002200F000F9B4F90C106F
:10557800EAE700BF10B50C46B1F90E1000F0F6F8D6
:10558800A389421C0EBF23F4805343F48053206543
:10559800A38110BDB1F90E1000F05CB838B50C4607
:1055A800114600228446074D20462A601A46644662
:1055B800FEF73AFF431C00D038BD2B68002BFBD008
:1055C800236038BDC40D00202DE9F047DFF87CA02A
:1055D8000646DAF8000098460F469146FFF792FC17
:1055E8001B4B1B68D3F8484124B365681F2D26DC84
:1055F8005EB96B1C0235DAF80000636044F8257068
:10560800FFF782FC0020BDE8F087012304EB850149
:10561800C1F88890D4F88821AB401A43022EC4F808
:105628008821C1F80881E4D1D4F88C211343C4F847
:105638008C31DEE703F5A674C3F84841D5E7DAF8FC
:105648000000FFF761FC4FF0FF30DCE79804002012
:1056580010580008002238B5064D044608462A604E
:10566800FEF7FCFE431C00D038BD2B68002BFBD096
:10567800236038BDC40D002070B500294BD0064604
:105688000C4610B1836B002B48D0636ED80734D515
:10569800B4F90C30002B3ED021463046FFF74CF9C8
:1056A800E36A054633B13046E16998470028B8BF38
:1056B8004FF0FF35A3891A063BD4216B41B104F1A1
:1056C8004003994202D03046FFF7F4FA00232363DF
:1056D800616C21B13046FFF7EDFA00236364FFF7F0
:1056E80077FA0022636EA281DB0727D5A06DFFF74A
:1056F80007FCFFF773FA284670BDA3899905CBD438
:10570800A06DFFF7FFFBB4F90C30002BC4D1656E18
:1057180015F0010508D00025284670BDFFF7D2F91D
:10572800636ED807B4D4E8E7A06DFFF7EDFB284611
:1057380070BD30462169FFF7BDFABEE7A06DFFF7DF
:10574800E3FBD3E770B50026074D0446084611462B
:105758002E60FEF7AFFE431C00D070BD2B68002BF7
:10576800FBD0236070BD00BFC40D002038B50C46C7
:10577800114600228446074D20462A601A46644690
:10578800FEF778FE431C00D038BD2B68002BFBD0F9
:10579800236038BDC40D002038B50C4611460022E0
:1057A8008446074D20462A601A466446FEF76AFE7C
:1057B800431C00D038BD2B68002BFBD0236038BDBC
:1057C800C40D0020F8B500BFF8BC08BC9E46704761
:0C57D800F8B500BFF8BC08BC9E46704746
:1057E40002030405060708090A0B0C0D0E0F10101E
:1057F400000000000000000000000000010203049B
:1058040006070809000000000102030470000020DC
:08581400214900080D02000803
:04581C00E901000896
:105820000000A0C0000080C0000040C0000000C018
:10583000000080BF0000803F0000004000004040AA
:10584000000080400000A0404DF38E3C01000000AD
:10585000100000000024F400000000000000000020
:105860000000000000000000000000000F00000029
:105870000000000000000000000000000000000028
:10588000000000000F000000700000200000000079
:10589000000000005C030020C40300202C04002052
:1058A00000000000000000000000000000000000F8
:1058B00000000000000000000000000000000000E8
:1058C00000000000000000000000000000000000D8
:1058D00000000000000000000000000000000000C8
:1058E00000000000000000000000000000000000B8
:1058F00000000000000000000000000000000000A8
:105900000000000000000000000000000000000097
:105910000000000000000000000000000000000087
:105920000000000000000000000000000000000077
:105930000000000000000000010000000000000066
:105940000E33CDAB34126DE6ECDE05000B0000002B
:105950000000000000000000000000000000000047
:105960000000000000000000000000000000000037
:105970000000000000000000000000000000000027
:105980000000000000000000000000000000000017
:105CB0000000000000000000800D00200000000037
:105CC000000000009C0400209C040020A40400208C
:105CD000A4040020AC040020AC040020B404002084
:105CE000B4040020BC040020BC040020C404002034
:105CF000C4040020CC040020CC040020D4040020E4
:105D0000D4040020DC040020DC040020E404002093
:105D1000E4040020EC040020EC040020F404002043
:105D2000F4040020FC040020FC04002004050020F2
:105D3000040500200C0500200C050020140500209F
:105D4000140500201C0500201C050020240500204F
:105D5000240500202C0500202C05002034050020FF
:105D6000340500203C0500203C05002044050020AF
:105D7000440500204C0500204C050020540500205F
:105D8000540500205C0500205C050020640500200F
:105D9000640500206C0500206C05002074050020BF
:105DA000740500207C0500207C050020840500206F
:105DB000840500208C0500208C050020940500201F
:105DC000940500209C0500209C050020A4050020CF
:105DD000A4050020AC050020AC050020B40500207F
:105DE000B4050020BC050020BC050020C40500202F
